:100000000C944D010C947E010C947E010C947E01A5
:100010000C947E010C947E010C947E010C947E0164
:100020000C947E010C947E010C947E010C947E0154
:100030000C947E010C947E010C947E010C947E0144
:100040000C947E010C947E010C947E010C947E0134
:100050000C947E010C947E010C947E010C94910909
:100060000C947E010C94050A0C94DB090C947E011F
:100070000C947E010C947E010C947E010C947E0104
:100080000C947E010C947E010C947E010C947E01F4
:100090000C947E010C947E010C947E010C947E01E4
:1000A0000C947E010C947E010C947E010C947E01D4
:1000B0000C947E010C947E010C947E010C947E01C4
:1000C0000C947E010C947E010C947E010C947E01B4
:1000D0000C947E010C947E010C947E010C947E01A4
:1000E0000C947E010C94A8030C94DA100C94F40385
:1000F0000C943B0A0C944B030C9467030C9421045E
:100100000C9442030C943A030C94C6030C942B04F5
:100110000C94CE030C9463030C944F030C94E801ED
:100120000C9435040C9417040C9459030C94F701A7
:100130000C94E0030C9403040C940B020C945D03E8
:100140000C94EA030C940D040C94BC030C943E0331
:100150000C949E030C9445030C94B2010C9475030B
:100160000C94B2030C9424030C94D6030C94A303B4
:100170000C9471030C9419020C941F030C946B03E0
:100180000C9455030C9436030C949E020C9451026B
:1001900000000A0B02090C0D0E0807030401000001
:1001A000000000000000000000000000000000004F
:1001B000000000000000000000000000121110000C
:1001C000000000000000000000000000000000002F
:1001D00000000000000000002200250028002B0085
:1001E0002E003100340002010000050108010B015E
:1001F00000002100240027002A002D0030003300D9
:1002000001010000040107010A01050505050705B4
:1002100008080808020202020A0A08080404040482
:1002200001010101010101010303030303030303AE
:10023000040707070C0C0C0C0C0C0C0C020202023D
:1002400006060606060606060B0B0B0B0B0B0B0B26
:1002500001021020200808102040102040800201D8
:1002600002010804020101020408102040808040BD
:1002700020100804020180040201804020100804BC
:10028000020108040201010204081020408001025A
:100290000408102040803B0ADA1011241FBECFEF63
:1002A000D1E2DEBFCDBF00E00CBF23E0A0E4B2E0AE
:1002B00001C01D92A132B207E1F712E0A0E0B2E066
:1002C000E6E2F7E200E00BBF02C007900D92A03417
:1002D000B107D9F711E0CCE4D1E000E006C02197E6
:1002E0000109802FFE010E944011CB34D10780E02C
:1002F0000807A9F70E94730A0C9481130C9400005C
:1003000090E0FC01E05BFD4F2491865F9D4FFC0176
:100310008491882399F090E0880F991FFC01E051A7
:10032000FE4FA591B491FC01EA52FE4F8591949144
:100330008FB7F894EC91E22BEC938FBF0895FC01FA
:10034000248135816217730720F4808191810097A1
:1003500029F41092400280E492E00895860F971FDE
:1003600008950895AF92BF92CF92DF92EF92FF92DD
:100370000F931F93CF93DF936C017B018B01040FCD
:10038000151FEB015E01AE18BF08C017D10759F069
:100390006991D601ED91FC910190F081E02DC601AB
:1003A0001995892B79F7C501DF91CF911F910F9195
:1003B000FF90EF90DF90CF90BF90AF900895FC0139
:1003C000448155816081718184E792E00C94B2018F
:1003D000FC01538D448D252F30E0842F90E0821B4B
:1003E000930B541710F0CF96089501970895FC01D0
:1003F000918D828D981761F0A28DAE0FBF2FB11D28
:100400005D968C91928D9F5F9F73928F90E008957F
:100410008FEF9FEF0895FC01918D828D981731F039
:10042000828DE80FF11D858D90E008958FEF9FEF8D
:100430000895FC01918D228D892F90E0805C9F4F63
:10044000821B91098F739927089584E792E00E9497
:10045000190221E0892B09F420E0822F0895FC0184
:10046000A48DA80FB92FB11DA35ABF4F2C91848D15
:1004700090E001968F739927848FA689B7892C9372
:10048000A089B1898C91837080648C93938D848DC5
:10049000981306C00288F389E02D80818F7D8083C8
:1004A0000895EF92FF920F931F93CF93DF93EC0188
:1004B00081E0888F9B8D8C8D98131AC0E889F9890B
:1004C000808185FF15C09FB7F894EE89FF8960830E
:1004D000E889F98980818370806480839FBF81E08F
:1004E00090E0DF91CF911F910F91FF90EF900895D1
:1004F000F62E0B8D10E00F5F1F4F0F731127E02EAC
:100500008C8D8E110CC00FB607FCFACFE889F989E3
:10051000808185FFF5CFCE010E942F02F1CFEB8DB8
:10052000EC0FFD2FF11DE35AFF4FF0829FB7F894B7
:100530000B8FEA89FB8980818062CFCFCF93DF93D5
:10054000EC01888D8823B9F0AA89BB89E889F989EB
:100550008C9185FD03C0808186FD0DC00FB607FC20
:10056000F7CF8C9185FFF2CF808185FFEDCFCE0153
:100570000E942F02E9CFDF91CF91089580E090E0B3
:10058000892B29F00E94250281110E94000080E041
:1005900090E0892B49F080E090E0892B29F00E94BF
:1005A000000081110E94000080E090E0892B49F05A
:1005B00080E090E0892B29F00E94000081110E94C8
:1005C000000080E090E0892B49F080E090E0892BEA
:1005D00029F00E94000081110C9400000895282F3A
:1005E00030E0F901E057FE4F9491F901E05BFD4FD7
:1005F0004491265F3D4FF9012491222309F435C02F
:10060000992311F191509231F8F4E92FF0E0882705
:10061000E35FFC4F8F4F0C9440113E0342031F03D6
:1006200036033A03240345034B034F035503590391
:100630005D036303670324036B03710375038091F8
:1006400080008F7780938000E22FF0E0EE0FFF1F95
:10065000EA52FE4FA591B4918FB7F894EC916111D5
:1006600048C040954E234C938FBF089580918000E1
:100670008F7DE8CF80918000877FE4CF84B58F772E
:1006800084BDE2CF84B58F7DFBCF8091B0008F77A2
:100690008093B000D9CF8091B0008F7DF9CF809149
:1006A00090008F7780939000CFCF809190008F7DC6
:1006B000F9CF80919000877FF5CF8091A0008F7750
:1006C0008093A000C1CF8091A0008F7DF9CF809151
:1006D000A000877FF5CF809120018F778093200144
:1006E000B3CF809120018F7DF9CF80912001877F4A
:1006F000F5CF4E2BB8CF982FE82FF0E0E057FE4F04
:10070000E491E150E23108F0B0C0F0E08827E4570E
:10071000FC4F8F4F0C9440119E03A303A803B20318
:10072000BC033504C603CE03D603E003EA03F40397
:1007300003040D043504170421042B0484B58068D8
:1007400084BD67BD089584B5806284BD68BD089589
:10075000809180008068809380007093890060930E
:10076000880008958091800080628093800070935B
:100770008B0060938A000895809180008860809348
:10078000800070938D0060938C0008958091B0007C
:1007900080688093B0006093B30008958091B000AA
:1007A00080628093B0006093B400089580919000BF
:1007B00080688093900070939900609398000895EA
:1007C0008091900080628093900070939B00609372
:1007D0009A000895809190008860809390007093B3
:1007E0009D0060939C0008958091A0008068809394
:1007F000A0008091A0008F7B8093A0007093A9003F
:100800006093A80008958091A00080628093A0006A
:100810007093AB006093AA0008958091A000886057
:100820008093A0007093AD006093AC000895809118
:100830002001806880932001709329016093280132
:1008400008958091200180628093200170932B0194
:1008500060932A010895809120018860809320018F
:1008600070932D0160932C0108956038710524F474
:1008700060E0892F0C94EF0261E0FBCF863308F033
:10088000865320917B00982F9870277F922B90930E
:100890007B008770806480937C0080917A00806404
:1008A00080937A0080917A0086FDFCCF8091780059
:1008B000909179000895FC0101900020E9F73197AB
:1008C000AF01481B590BBC0184E792E00C94B201C4
:1008D000CF93DF930E94DF01EC0188E192E00E9458
:1008E0005B048C0F9D1FDF91CF910895CF93DF9311
:1008F0000E945B04EC0188E192E00E945B048C0F93
:100900009D1FDF91CF9108958F929F92AF92BF92DA
:10091000CF92DF92EF92FF920F931F93CF93DF93CB
:10092000CDB7DEB7A1970FB6F894DEBF0FBECDBF2F
:100930006C01990FEE08FF08F7FE41C06DE284E7F5
:1009400092E00E9451028C0122273327A9012C1921
:100950003D094E095F0919A2CE0181967C019AE0FA
:10096000892E912CA12CB12CCA01B901A5019401A9
:100970000E941E11605DF70162937F012115310510
:100980004105510589F790E080E0309719F0CF01DB
:100990000E945B04800F911FA1960FB6F894DEBFF2
:1009A0000FBECDBFDF91CF911F910F91FF90EF90C0
:1009B000DF90CF90BF90AF909F908F900895A70148
:1009C000960119A28E010F5D1F4F8AE0C82ED12C0F
:1009D000E12CF12CCA01B901A70196010E941E1158
:1009E000605DF80162938F012115310541055105C4
:1009F00089F790E080E0309779F2CF010E945B04A4
:100A0000CBCFCF93DF930E948404EC0188E192E086
:100A10000E945B048C0F9D1FDF91CF910895CF93AF
:100A2000DF93EC0188819981009711F00E94E41115
:100A3000198218821D821C821B821A82DF91CF913B
:100A40000895FC0180819181009711F00C94E411CC
:100A500008950F931F93CF93DF93009769F0EC01F4
:100A60008C01025E1F4FC017D10731F006501109EB
:100A7000C8010E942105F7CFDF91CF911F910F91FF
:100A80000895FC0124813581232B39F421E0FB01F9
:100A90008081882349F020E007C0808191810E94F5
:100AA000571321E0892BB9F7822F0895CF93DF9355
:100AB000EC0163E272E00E944105882349F082E084
:100AC00090E09093420280934102DF91CF9108958C
:100AD0006DE272E0CE010E944105882319F083E0A7
:100AE00090E0EFCF65E372E0CE010E9441058823DC
:100AF00019F084E090E0E5CF6DE372E0CE010E9452
:100B00004105882319F085E090E0DBCF6BE172E0CE
:100B1000CE010E944105882319F086E090E0D1CFF4
:100B20006DE172E0CE010E944105882319F087E053
:100B300090E0C7CF6FE172E0CE010E9441058823AB
:100B400019F088E090E0BDCF62E372E0CE010E9430
:100B50004105882309F4B9CF89E090E0B2CFCF9363
:100B6000DF93EC0163E272E00E9441058823D9F033
:100B700086E190E090934A028093490287E190E0F9
:100B8000909348028093470288E190E09093460258
:100B90008093450286E390E0909344028093430261
:100BA000DF91CF9108956DE272E0CE010E94410580
:100BB0008823A9F089E190E090934A02809349024A
:100BC0008AE190E090934802809347028BE190E0A5
:100BD000909346028093450287E390E0DDCF65E382
:100BE00072E0CE010E9441058823A9F08CE190E0DB
:100BF00090934A02809349028DE190E090934802DD
:100C0000809347028EE190E09093460280934502E4
:100C100088E390E0C1CF6DE372E0CE010E94410510
:100C20008823A9F08FE190E090934A0280934902D3
:100C300080E290E0909348028093470281E290E046
:100C4000909346028093450289E390E0A5CF6BE143
:100C500072E0CE010E9441058823A9F082E290E073
:100C600090934A028093490283E290E09093480275
:100C70008093470284E290E090934602809345027D
:100C80008AE390E089CF6DE172E0CE010E944105D8
:100C90008823A9F085E290E090934A02809349026C
:100CA00086E290E0909348028093470287E290E0CA
:100CB00090934602809345028BE390E06DCF6FE105
:100CC00072E0CE010E9441058823A9F088E290E0FD
:100CD00090934A028093490289E290E090934802FF
:100CE000809347028AE290E0909346028093450207
:100CF0008CE390E051CF62E372E0CE010E944105A7
:100D0000882309F44DCF8BE290E090934A028093C0
:100D100049028CE290E090934802809347028DE272
:100D200090E090934602809345028DE390E034CFAB
:100D30000F931F93CF93DF938C01EB01FC01808114
:100D400091810097E1F06881798161157105A9F0C1
:100D5000428153812C813D814217530770F00E94DC
:100D600060138C819D81F801958384831D821C8290
:100D7000DF91CF911F910F9108950E94E411888116
:100D80009981F801918380838A819B8193838283F7
:100D90008C819D8195838483198218821B821A829B
:100DA000E5CF0F931F93CF93DF93EC018881998157
:100DB000009759F02A813B812617370730F081E0F0
:100DC000DF91CF911F910F9108958B016F5F7F4F3E
:100DD0000E946D12009759F0998388831B830A83C0
:100DE0002C813D81232B59F7FC011082E8CF80E054
:100DF000E7CFEF92FF920F931F93CF93DF9361158D
:100E0000710541F480E0DF91CF911F910F91FF9028
:100E1000EF90089541155105B1F07B01EC010C8173
:100E20001D81040F151FB8010E94D106882351F3BC
:100E3000288139818C819D81B701820F931F0E9487
:100E400060131D830C8381E0DECFCF93DF93EC0131
:100E5000FB0101900020E9F73197AF01461B570BCA
:100E60000E94F906811103C0CE010E940F05CE0138
:100E7000DF91CF910895CF93DF93EC01FB01448183
:100E80005581608171810E94F906811103C0CE01F4
:100E90000E940F05CE01DF91CF910895EF92FF924E
:100EA0000F931F93CF93DF93EC017B018A01BA016B
:100EB0000E94D10681110BC0CE010E940F05CE0108
:100EC000DF91CF911F910F91FF90EF9008951D83B7
:100ED0000C83B701888199810E946013F0CFCF9372
:100EE000DF93EC01FB018617970749F06081718160
:100EF0006115710541F0448155810E944E07CE0174
:100F0000DF91CF9108950E940F05F9CFFC01118266
:100F1000108213821282158214820C946F07CF9371
:100F2000DF931F921F92CDB7DEB7FC0111821082B2
:100F3000138212821582148269831A82BE016F5F46
:100F40007F4FFB0101900020E9F73197AF01461B6D
:100F5000570B0E944E070F900F90DF91CF9108958D
:100F6000FC01118210821382128215821482FB010D
:100F700001900020E9F73197AF01461B570B0C9405
:100F80004E07AF92BF92CF92DF92EF92FF920F93F4
:100F90001F93CF93DF937C016B015A0189012417C2
:100FA000350720F48B2D5901042F182F6AE172E0C8
:100FB000C7010E94B007D6011496CD91DC91AC1602
:100FC000BD0620F50C171D0708F4E801D601ED91C8
:100FD000FC911197EC0FFD1F108110826D917C9197
:100FE0006A0D7B1D61157105E9F0FB010190002080
:100FF000E9F73197AF01461B570BC7010E944E0717
:10100000F60180819181C80FD91F1883C701DF9134
:10101000CF911F910F91FF90EF90DF90CF90BF90F5
:10102000AF900895C7010E940F05EACFCF93DF93D9
:10103000EC01FB01868D978D481759077CF426E05B
:10104000249FC001259F900D1124680F791FCE01A8
:101050000E948607CE01DF91CF9108956AE172E088
:10106000CE010E94B007F6CF5F926F927F928F926F
:101070009F92AF92BF92CF92DF92EF92FF920F9327
:101080001F93CF93DF93CDB7DEB768970FB6F89471
:10109000DEBF0FBECDBF8C016B01542E39015C0148
:1010A0007C018EE1E80EF11C6AE172E0C5010E944C
:1010B000B007E6E0AE0EB11CAE14BF04A9F7F8010C
:1010C000178E168EB601CE0101960E948607F12C6E
:1010D000E12C912C812C5401FFEFAF1ABF0A8D81B6
:1010E0009E81E816F90670F4B701CE0101960E94C0
:1010F0009F01FC01808158125401FFEFEF1AFF0A93
:101100004501E9CFF801B78EA68ECE0101960E9467
:101110002105F801868D978D82309105F4F481E0E8
:1011200090E0978F868FB601C8010E946F0768967E
:101130000FB6F894DEBF0FBECDBFDF91CF911F91E8
:101140000F91FF90EF90DF90CF90BF90AF909F9066
:101150008F907F906F905F9008956816790610F4D5
:10116000778E668EF801868D978D069720F085E044
:1011700090E0978F868F652DCE0143960E948F0752
:101180006AE172E0CE010D960E94B007B601CE0171
:1011900007960E948607D12CC12C86E0882E8B856D
:1011A0009C85892B09F4B0C0EF80F8846B897C8919
:1011B000C7010E946713009709F499C08E199F090F
:1011C00097FD95C0F801868D978D0197C816D906B1
:1011D0000CF08DC0F12CE12C9E2CAF2C8B859C85C6
:1011E000E816F906E0F6FFEFEF1AFF0A9701492D1E
:1011F0005A2DBE01695F7F4FCE0101960E94C10743
:101200002D813E818F89988D2817390711F58981A5
:101210009A816B897C89009759F06115710509F0F5
:1012200060C0232B09F460C0FC01808190E00DC0F8
:101230006115710509F458C0232B09F455C0FB0151
:10124000808190E0919581959109BB24B394892B7D
:1012500009F0B12CCE0101960E942105BB2009F4B2
:10126000BBCF292D3A2D50E040E0BE01695F7F4F92
:10127000CE0101960E94C107BE016F5F7F4FCE0174
:101280000D960E949806CE0101960E9421052B859D
:101290003C85A701BE01695F7F4FCE0101960E9488
:1012A000C107BE016F5F7F4FCE0107960E9498066F
:1012B000CE0101960E94210589899A89892B09F41A
:1012C0006ECF8C9CC0018D9C900D1124BE01635F7C
:1012D0007F4F800F911F0E946F07FFEFCF1ADF0A29
:1012E0005ECF0E945713B1CFBB24B394B3CF26E097
:1012F0002C9DC0012D9D900D1124BE01695F7F4F73
:10130000800F911F0E946F07CE0107960E94210552
:10131000CE010D960E942105CE0143960E94210523
:1013200006CF1F920F920FB60F9211242F933F9367
:101330008F939F93AF93BF938091700290917102AE
:10134000A0917202B091730230916F0223E0230FDB
:101350002D3758F50196A11DB11D20936F02809382
:10136000700290937102A0937202B0937302809105
:101370006B0290916C02A0916D02B0916E02019689
:10138000A11DB11D80936B0290936C02A0936D021E
:10139000B0936E02BF91AF919F918F913F912F912A
:1013A0000F900FBE0F901F90189526E8230F0296FE
:1013B000A11DB11DD2CF1F920F920FB60F92112413
:1013C0000BB60F922F933F934F935F936F937F933F
:1013D0008F939F93AF93BF93EF93FF9384E792E034
:1013E0000E942F02FF91EF91BF91AF919F918F913A
:1013F0007F916F915F914F913F912F910F900BBE15
:101400000F900FBE0F901F9018951F920F920FB65E
:101410000F9211240BB60F922F938F939F93EF93FC
:10142000FF93E0918402F09185028081E0918A022D
:10143000F0918B0282FD1DC0908180918D028F5FA3
:101440008F7320918E02821741F0E0918D02F0E0BF
:10145000EC58FD4F958F80938D02FF91EF919F91F6
:101460008F912F910F900BBE0F900FBE0F901F907A
:1014700018958081F2CFE4E7F2E01382128288EEC1
:1014800093E0A0E0B0E084839583A683B7838AE0ED
:1014900092E09183808385EC90E09587848784EC4B
:1014A00090E09787868780EC90E0918B808B81EC31
:1014B00090E0938B828B82EC90E0958B848B86EC12
:1014C00090E0978B868B118E128E138E148E61E2B4
:1014D00072E087E193E00E94B00765E272E081E18B
:1014E00093E00C94B007CF93DF93CDB7DEB7E097CE
:1014F0000FB6F894DEBF0FBECDBF789484B582607E
:1015000084BD84B5816084BD85B5826085BD85B5A7
:10151000816085BD80916E00816080936E00109225
:1015200081008091810082608093810080918100A0
:101530008160809381008091800081608093800031
:101540008091B10084608093B1008091B00081608F
:101550008093B0008091910082608093910080918F
:1015600091008160809391008091900081608093D0
:1015700090008091A10082608093A1008091A100E1
:1015800081608093A1008091A00081608093A00081
:1015900080912101826080932101809121018160ED
:1015A00080932101809120018160809320018091AE
:1015B0007A00846080937A0080917A0082608093C0
:1015C0007A0080917A00816080937A0080917A001D
:1015D000806880937A001092C100E0918402F091BB
:1015E000850282E08083E0918002F0918102108286
:1015F000E0918202F09183028FEC808310928C0242
:10160000E0918802F091890286E08083E091860271
:10161000F0918702808180618083E0918602F09161
:101620008702808188608083E0918602F091870242
:10163000808180688083E0918602F09187028081BA
:101640008F7D808382E00E94800183E00E94800180
:1016500084E00E94800185E00E94800186E00E9473
:10166000800187E00E94800188E00E94800189E07B
:101670000E94800186E10E94800187E10E94800132
:1016800088E10E94800189E10E9480018AE10E9434
:1016900080018BE10E9480018CE10E9480018DE13C
:1016A0000E9480018EE10E9480018FE10E948001F2
:1016B00080E20E94800181E20E94800182E20E9419
:1016C000800183E20E94800184E20E94800185E221
:1016D0000E94800186E20E94800187E20E948001D0
:1016E00088E20E94800189E20E9480018AE20E94D1
:1016F00080018BE20E9480018CE20E9480018DE2D9
:101700000E94800184E792E00E94190218161906CF
:101710000CF04DC584E792E00E94F7012091690228
:1017200030916A02F901E55BFD4F8A3059F02D31A5
:10173000310540F480832F5F3F4F30936A0220933E
:101740006902E0CF10826BE472E0CE018B960E94BA
:10175000B007BE01655D7F4FCE0101960E948607EE
:1017600080E290E00E9448117C0122E030E04CE2EF
:10177000BE016F5F7F4F0E943408CE0101960E9428
:10178000210550E040E0B701CE0185960E94160881
:1017900041E050E0B701CE014F960E94160862E288
:1017A00072E0CE0185960E944105882371F18BE499
:1017B00092E00E945B0481E193E00E94DF0187E1F7
:1017C00093E00E94DF0181E193E00E94DF0182E269
:1017D00092E00E947604E114F10431F0C7010E9406
:1017E0002905C7010E94E41110926A021092690251
:1017F000CE014F960E942105CE0185960E942105BB
:10180000CE018B960E9421057DCF67E272E0CE016A
:1018100085960E944105882309F463C3BE01615E79
:101820007F4FCE0101960E94860780E290E00E94E1
:1018300048118C0123E030E046E2BE016F5F7F4F2C
:101840000E943408CE0101960E94210550E040E03C
:10185000B801CE0149960E94160870E060E0CE0102
:1018600049960E949F01FC016081CE0101960E9471
:101870008F076AE272E0CE0101960E944105D82EE0
:10188000CE0101960E942105DD2009F424C161E00A
:1018900070E0CE0149960E949F01FC016081CE015B
:1018A00001960E948F07CE0101960E94AF05CE01DE
:1018B00001960E94210541E050E0B801CE01079653
:1018C0000E94160863E272E0CE0107960E9441056D
:1018D000882309F448C061E0809149020E94EF0228
:1018E00060E0809147020E94EF0260E08091450233
:1018F0000E94EF02809143020E943E04843C9105C5
:101900000CF049C0CE0185960E94DF0181E193E091
:101910000E94DF0180E991E00E94840481E193E06C
:101920000E94DF01BE01675E7F4FCE0101960E94DB
:10193000860768E372E0CE0101960E942507BE018A
:10194000695F7F4F0E943B0768E372E00E942507B2
:101950000E94DF01CE0101960E94210582E292E001
:101960000E9476044AC06DE272E0CE0107960E94A2
:101970004105882309F453C061E0809149020E9427
:10198000EF0260E0809147020E94EF0260E08091E8
:1019900045020E94EF02CE0185960E94DF0181E19F
:1019A00093E00E94DF0187E193E00E94DF0181E183
:1019B00093E00E94DF01BE01675E7F4FCE0101967A
:1019C0000E94860768E372E0CE0101960E94250717
:1019D000BE01695F7F4F0E943B0768E372E00E948F
:1019E00025070E94DF01CE0101960E94210580910A
:1019F00043020E943E040E9401050115110531F0C9
:101A0000C8010E942905C8010E94E411CE01079671
:101A10000E942105CE0149960E942105DCCE65E396
:101A200072E0CE0107960E944105882339F060E0FC
:101A3000809149020E94EF0261E053CF6DE372E0B2
:101A4000CE0107960E9441058823E1F061E0809174
:101A500049020E94EF0261E0809147020E94EF027A
:101A600060E0809145020E94EF02CE0185960E94BF
:101A7000DF0181E193E00E94DF0188EC90E00E94A9
:101A8000840495CF6BE172E0CE0107960E94410578
:101A9000882361F060E0809149020E94EF0260E0DB
:101AA000809147020E94EF0261E0DBCF6DE172E0BE
:101AB000CE0107960E944105882309F49ECF61E07C
:101AC000809149020E94EF0260E0809147020E94EB
:101AD000EF0261E00BCF41E050E0B801CE01439648
:101AE0000E94160861E070E0CE0149960E949F01B5
:101AF000FC016081CE0101960E948F07CE01019604
:101B00000E945605CE0101960E942105CE018596C0
:101B10000E94DF0181E193E00E94DF0187E193E011
:101B20000E94DF0181E193E00E94DF0163E272E045
:101B3000CE0143960E944105882321F161E0809106
:101B400041020E94EF02BE01675E7F4FCE01019607
:101B50000E94860768E372E0CE0101960E94250785
:101B6000BE016D5E7F4F0E943B076CE272E00E94F7
:101B700025070E946804CE0101960E942105CE012E
:101B8000439646CF42E050E0B801CE010D960E9448
:101B90001608BE01635F7F4FCE0101960E94860743
:101BA00061E070E0CE0149960E949F01FC016081D6
:101BB000CE0107960E948F0763E272E0CE0107967E
:101BC0000E944105811110C06DE272E0CE010796BE
:101BD0000E944105811108C06DE372E0CE010796B5
:101BE0000E944105882379F063E272E0CE010196FC
:101BF0000E944105882309F48CC080919100887F60
:101C000082608093910065E372E0CE0107960E94A6
:101C10004105882369F063E272E0CE0101960E94DB
:101C20004105882309F4B6C085B5887F826085BDEB
:101C30006BE172E0CE0107960E944105811110C050
:101C40006DE172E0CE0107960E944105811108C046
:101C50006FE172E0CE0107960E944105882379F07A
:101C600063E272E0CE0101960E944105882309F4E7
:101C7000B6C08091A100887F82608093A10062E35A
:101C800072E0CE0107960E944105882379F063E255
:101C900072E0CE0101960E944105882309F4E0C05C
:101CA0008091B100887F82608093B100CE01079659
:101CB0000E942105CE0101960E942105109141024A
:101CC000812F0E9480016FE770E0812F0E947B03CB
:101CD000BE01675E7F4FCE0101960E94860768E3D2
:101CE00072E0CE0101960E942507BE016D5E7F4F16
:101CF0000E943B076FE272E00E9425070E94680481
:101D0000CE0101960E942105CE010D960E9421056B
:101D100036CF6DE272E0CE0101960E944105882324
:101D200029F080919100887F83606BCF65E372E03A
:101D3000CE0101960E944105882329F080919100EF
:101D4000887F84605ECF6DE372E0CE0101960E94D1
:101D50004105882329F080919100887F856051CFCB
:101D60006BE172E0CE0101960E944105882329F0C3
:101D700080919100887F866044CF6DE172E0CE0152
:101D800001960E944105882309F43DCF809191007E
:101D9000876037CF6DE272E0CE0101960E94410567
:101DA000882321F085B5887F836041CF65E372E0A9
:101DB000CE0101960E944105882321F085B5887FD8
:101DC000846035CF6DE372E0CE0101960E9441053B
:101DD000882309F42DCF85B5887F856028CF6DE2F3
:101DE00072E0CE0101960E944105882329F080917E
:101DF000A100887F836041CF65E372E0CE01019648
:101E00000E944105882329F08091A100887F846089
:101E100034CF6DE372E0CE0101960E944105882324
:101E200029F08091A100887F856027CF6BE172E067
:101E3000CE0101960E944105882329F08091A100DE
:101E4000887F86601ACF6DE172E0CE0101960E9414
:101E50004105882309F413CF8091A10087600DCF3D
:101E60006DE272E0CE0101960E944105882329F0BF
:101E70008091B100887F836017CF65E372E0CE0167
:101E800001960E944105882329F08091B100887F46
:101E900084600ACF6DE372E0CE0101960E94410595
:101EA000882329F08091B100887F8560FDCE6BE1A9
:101EB00072E0CE0101960E944105882329F08091AD
:101EC000B100887F8660F0CE6DE172E0CE010196B0
:101ED0000E944105882309F4E9CE8091B100876012
:101EE000E3CE64E372E0CE0185960E94410588232B
:101EF00009F4A2C0CE0185960E94DF0181E193E042
:101F00000E94DF0187E193E00E94DF0181E193E01D
:101F10000E94DF01BE01615E7F4FCE0101960E94EB
:101F2000860780E290E00E9448116C0128E030E0D2
:101F300046E2BE016F5F7F4F0E943408CE010196DA
:101F40000E94210510E000E0A801B601CE0107962D
:101F50000E94160861E070E0CE0107960E949F0182
:101F6000FC016081CE0101960E948F076DE272E054
:101F7000CE0101960E944105B82ECE0101960E9425
:101F80002105BB2009F44DC070E060E0CE0107964A
:101F900007301105D9F00E949F01FC016081CE013C
:101FA00001960E948F07CE0101960E94AF05CE01D7
:101FB00001960E942105809143020E943E040E94E6
:101FC000840488E392E00E945B0416C00E949F0193
:101FD000FC016081CE0101960E948F07CE0101961F
:101FE0000E94AF05CE0101960E9421058091430217
:101FF0000E943E040E940105CE0107960E94210521
:102000000F5F1F4F0830110509F09ECFC114D10496
:1020100009F4E1CBC6010E942905C6010E94E41122
:10202000DACB0730110519F087E392E0CCCF8AE3D1
:1020300092E00E947604E0CF6CE372E0CE018596D8
:102040000E944105882309F4C6CBBE01615E7F4F23
:10205000CE0101960E94860780E290E00E9448111E
:102060008C0123E030E046E2BE016F5F7F4F0E94AB
:102070003408CE0101960E94210550E040E0B801ED
:10208000CE0143960E94160841E050E0B801CE010F
:102090000D960E94160842E050E0B801CE01079666
:1020A0000E94160861E070E0CE010D960E949F012B
:1020B000FC016081CE0101960E948F07CE0101963E
:1020C0000E945605CE0101960E94210563E272E04E
:1020D000CE0143960E9441052F813885882309F45B
:1020E00047C060E02115310519F0C9010E94E210D6
:1020F000809141020E94EF02CE0185960E94DF018D
:1021000081E193E00E94DF0187E193E00E94DF011B
:1021100081E193E00E94DF01BE01635F7F4FCE014A
:1021200001960E94860768E372E0CE0101960E9444
:102130002507BE01695F7F4F0E943B070E9468042C
:10214000CE0101960E9421050115110531F0C8014B
:102150000E942905C8010E94E411CE0107960E9441
:102160002105CE010D960E942105CE01439654CC47
:10217000412C512C32012115310521F0C9010E9459
:10218000E2102B01D09041028D2D0E94800160E071
:102190004114510429F0FFEF4F16510419F461E086
:1021A0008D2DA8CFB2018D2D0E947B03A5CF0E945B
:1021B000BE02A8CA81E193E00E94210587E193E075
:1021C0000C9421051F93FC0199278827BC01E894F2
:1021D00011911032E9F3193010F01E30C8F31B32A0
:1021E00051F01D3249F4689406C00E940911610F34
:1021F000711D811D911D119110531A30B0F33EF4E1
:1022000090958095709561957F4F8F4F9F4F1F914F
:102210000895592F482F372F262F660F771F881FB5
:10222000991F660F771F881F991F620F731F841FE6
:10223000951F660F771F881F991F0895A1E21A2E18
:10224000AA1BBB1BFD010DC0AA1FBB1FEE1FFF1F5A
:10225000A217B307E407F50720F0A21BB30BE40BAA
:10226000F50B661F771F881F991F1A9469F76095F1
:102270007095809590959B01AC01BD01CF010895AB
:10228000EE0FFF1F881F8BBF0790F691E02D19946A
:102290000F931F93CF93DF938230910510F482E068
:1022A00090E0E0911F03F091200330E020E0B0E0E7
:1022B000A0E0309799F42115310509F44AC0281B94
:1022C000390B24303105D8F58A819B816115710560
:1022D00089F1FB0193838283FE0111C0408151810A
:1022E0000281138148175907E0F04817590799F4FC
:1022F000109761F012960C93129713961C933296D6
:10230000CF01DF91CF911F910F91089500931F038B
:1023100010932003F4CF2115310551F042175307D4
:1023200038F0A901DB019A01BD01DF01F801C1CF3D
:10233000EF01F9CF9093200380931F03CDCFFE01CF
:10234000E20FF31F8193919322503109398328833F
:10235000D7CF20911D0330911E03232B41F42091F0
:1023600002023091030230931E0320931D0320913B
:102370000002309101022115310541F42DB73EB71D
:102380004091040250910502241B350BE0911D037E
:10239000F0911E03E217F307A0F42E1B3F0B281742
:1023A000390778F0AC014E5F5F4F2417350748F0CE
:1023B0004E0F5F1F50931E0340931D038193919313
:1023C0009FCFF0E0E0E09CCFCF93DF930097E9F060
:1023D000FC01329713821282A0911F03B091200357
:1023E000ED0130E020E01097A1F420813181820FCF
:1023F000931F20911D0330911E032817390709F000
:1024000061C0F0931E03E0931D03DF91CF91089507
:10241000EA01CE17DF07E8F54A815B819E0141158D
:102420005105B1F7E901FB83EA8349915991C40F42
:10243000D51FEC17FD0761F4808191810296840F0E
:10244000951FE90199838883828193819B838A8385
:10245000F0E0E0E012968D919C9113970097B9F50A
:102460002D913C911197CD010296820F931F2091DF
:102470001D0330911E032817390739F6309751F59F
:102480001092200310921F03B0931E03A0931D030C
:10249000BCCFD383C28340815181840F951FC8175D
:1024A000D90761F44E5F5F4F88819981480F591FAA
:1024B000518340838A819B819383828321153105D7
:1024C00009F0B0CFF0932003E0931F039ECFFD01EE
:1024D000DC01C0CF13821282D7CF4F925F926F92EE
:1024E0007F928F929F92AF92BF92CF92DF92EF92A4
:1024F000FF920F931F93CF93DF938C01009799F472
:10250000CB01DF91CF911F910F91FF90EF90DF9062
:10251000CF90BF90AF909F908F907F906F905F9083
:102520004F900C944811FC01E60FF71F9C012250BC
:102530003109E217F30708F4AEC0D901CD91DC915F
:102540001197C617D70720F1C530D10578F0CE0115
:1025500004978617970750F0C61BD70B2297C19395
:10256000D1936D937C93CF010E94E411C801DF9158
:10257000CF911F910F91FF90EF90DF90CF90BF9080
:10258000AF909F908F907F906F905F904F90089545
:102590005B01AC1ABD0A4C018C0E9D1EA0911F035D
:1025A000B0912003512C412CF12CE12C109731F5E6
:1025B00080911D0390911E038815990509F05CC058
:1025C0004616570608F058C080910002909101020B
:1025D000009741F48DB79EB74091040250910502D7
:1025E000841B950BE817F90708F055C0F0931E03FC
:1025F000E0931D03F90171836083B8CF8D919C91A5
:10260000119712966C90129713967C901397A815B9
:10261000B90559F56C0142E0C40ED11CCA14DB04A3
:1026200020F1AC014A195B09DA011296159780F086
:102630006282738251834083D9016D937C93E1144C
:10264000F10471F0D7011396FC93EE9312978ECF9D
:1026500022968C0F9D1FF90191838083F301EFCFA8
:10266000F0932003E0931F0381CF4816590608F426
:102670002C017D01D3019ACFCB010E9448117C012E
:10268000009749F0AE01B8010E944E13C8010E94A4
:10269000E41187016BCF10E000E068CFFB01DC01A3
:1026A00002C001900D9241505040D8F70895FB01AF
:1026B000DC018D91019080190110D9F3990B0895D7
:1026C000FB01DC0101900D920020E1F70895FB0170
:1026D00051915523A9F0BF01DC014D9145174111DE
:1026E000E1F759F4CD010190002049F04D914015DA
:1026F0004111C9F3FB014111EFCF81E090E0019757
:10270000089511E0CCE4D1E000E006C0802FFE0186
:102710000E9440112196011DCD34D10780E00807A9
:06272000A9F7F894FFCFB9
:10272600000021038000000000005102B201E80110
:102736009E021902F7010B020D0A0034003500361D
:1027460000323030002C003031004900263100269E
:10275600313237003032005826005800303300003E
:00000001FF
